{
  "_format": "hh-sol-artifact-1",
  "contractName": "TokenizedBallot",
  "sourceName": "contracts/TokenizedBallot.sol",
  "abi": [
    {
      "inputs": [
        {
          "internalType": "bytes32[]",
          "name": "_proposalNames",
          "type": "bytes32[]"
        },
        {
          "internalType": "address",
          "name": "_targetContract",
          "type": "address"
        },
        {
          "internalType": "uint256",
          "name": "_targetBlockNumber",
          "type": "uint256"
        }
      ],
      "stateMutability": "nonpayable",
      "type": "constructor"
    },
    {
      "inputs": [
        {
          "internalType": "uint256",
          "name": "",
          "type": "uint256"
        }
      ],
      "name": "proposals",
      "outputs": [
        {
          "internalType": "bytes32",
          "name": "name",
          "type": "bytes32"
        },
        {
          "internalType": "uint256",
          "name": "voteCount",
          "type": "uint256"
        }
      ],
      "stateMutability": "view",
      "type": "function"
    },
    {
      "inputs": [],
      "name": "targetBlockNumber",
      "outputs": [
        {
          "internalType": "uint256",
          "name": "",
          "type": "uint256"
        }
      ],
      "stateMutability": "view",
      "type": "function"
    },
    {
      "inputs": [],
      "name": "targetContract",
      "outputs": [
        {
          "internalType": "contract IMyToken",
          "name": "",
          "type": "address"
        }
      ],
      "stateMutability": "view",
      "type": "function"
    },
    {
      "inputs": [
        {
          "internalType": "uint256",
          "name": "proposal",
          "type": "uint256"
        },
        {
          "internalType": "uint256",
          "name": "amount",
          "type": "uint256"
        }
      ],
      "name": "vote",
      "outputs": [],
      "stateMutability": "nonpayable",
      "type": "function"
    },
    {
      "inputs": [
        {
          "internalType": "address",
          "name": "",
          "type": "address"
        }
      ],
      "name": "voted",
      "outputs": [
        {
          "internalType": "uint256",
          "name": "",
          "type": "uint256"
        }
      ],
      "stateMutability": "view",
      "type": "function"
    },
    {
      "inputs": [
        {
          "internalType": "address",
          "name": "account",
          "type": "address"
        }
      ],
      "name": "votingPower",
      "outputs": [
        {
          "internalType": "uint256",
          "name": "",
          "type": "uint256"
        }
      ],
      "stateMutability": "view",
      "type": "function"
    },
    {
      "inputs": [],
      "name": "winnerName",
      "outputs": [
        {
          "internalType": "bytes32",
          "name": "winnerName_",
          "type": "bytes32"
        }
      ],
      "stateMutability": "view",
      "type": "function"
    },
    {
      "inputs": [],
      "name": "winningProposal",
      "outputs": [
        {
          "internalType": "uint256",
          "name": "winningProposal_",
          "type": "uint256"
        }
      ],
      "stateMutability": "view",
      "type": "function"
    },
    {
      "inputs": [],
      "name": "winningProposalVoteCount",
      "outputs": [
        {
          "internalType": "uint256",
          "name": "winningVoteCount_",
          "type": "uint256"
        }
      ],
      "stateMutability": "view",
      "type": "function"
    }
  ],
  "bytecode": "0x60806040523480156200001157600080fd5b5060405162000fc738038062000fc78339818101604052810190620000379190620003c9565b81600160006101000a81548173ffffffffffffffffffffffffffffffffffffffff021916908373ffffffffffffffffffffffffffffffffffffffff160217905550438110620000bd576040517f08c379a0000000000000000000000000000000000000000000000000000000008152600401620000b490620004cb565b60405180910390fd5b8060038190555060005b83518110156200015b5760026040518060400160405280868481518110620000f457620000f3620004ed565b5b602002602001015181526020016000815250908060018154018082558091505060019003906000526020600020906002020160009091909190915060008201518160000155602082015181600101555050808062000152906200054b565b915050620000c7565b5050505062000598565b6000604051905090565b600080fd5b600080fd5b600080fd5b6000601f19601f8301169050919050565b7f4e487b7100000000000000000000000000000000000000000000000000000000600052604160045260246000fd5b620001c9826200017e565b810181811067ffffffffffffffff82111715620001eb57620001ea6200018f565b5b80604052505050565b60006200020062000165565b90506200020e8282620001be565b919050565b600067ffffffffffffffff8211156200023157620002306200018f565b5b602082029050602081019050919050565b600080fd5b6000819050919050565b6200025c8162000247565b81146200026857600080fd5b50565b6000815190506200027c8162000251565b92915050565b600062000299620002938462000213565b620001f4565b90508083825260208201905060208402830185811115620002bf57620002be62000242565b5b835b81811015620002ec5780620002d788826200026b565b845260208401935050602081019050620002c1565b5050509392505050565b600082601f8301126200030e576200030d62000179565b5b81516200032084826020860162000282565b91505092915050565b600073ffffffffffffffffffffffffffffffffffffffff82169050919050565b6000620003568262000329565b9050919050565b620003688162000349565b81146200037457600080fd5b50565b60008151905062000388816200035d565b92915050565b6000819050919050565b620003a3816200038e565b8114620003af57600080fd5b50565b600081519050620003c38162000398565b92915050565b600080600060608486031215620003e557620003e46200016f565b5b600084015167ffffffffffffffff81111562000406576200040562000174565b5b6200041486828701620002f6565b9350506020620004278682870162000377565b92505060406200043a86828701620003b2565b9150509250925092565b600082825260208201905092915050565b7f546f6b656e697a656442616c6c6f743a20746172676574426c6f636b4e756d6260008201527f6572206d75737420626520696e20746865207061737400000000000000000000602082015250565b6000620004b360368362000444565b9150620004c08262000455565b604082019050919050565b60006020820190508181036000830152620004e681620004a4565b9050919050565b7f4e487b7100000000000000000000000000000000000000000000000000000000600052603260045260246000fd5b7f4e487b7100000000000000000000000000000000000000000000000000000000600052601160045260246000fd5b600062000558826200038e565b91507fffffffffffffffffffffffffffffffffffffffffffffffffffffffffffffffff82036200058d576200058c6200051c565b5b600182019050919050565b610a1f80620005a86000396000f3fe608060405234801561001057600080fd5b50600436106100935760003560e01c8063aec2ccae11610066578063aec2ccae14610123578063b384abef14610153578063bd90df701461016f578063c07473f61461018d578063e2ba53f0146101bd57610093565b8063013cf08b1461009857806301633a8c146100c95780632a8cd29e146100e7578063609ff1bd14610105575b600080fd5b6100b260048036038101906100ad91906105c5565b6101db565b6040516100c092919061061a565b60405180910390f35b6100d161020f565b6040516100de9190610643565b60405180910390f35b6100ef61028d565b6040516100fc9190610643565b60405180910390f35b61010d610293565b60405161011a9190610643565b60405180910390f35b61013d600480360381019061013891906106bc565b61031b565b60405161014a9190610643565b60405180910390f35b61016d600480360381019061016891906106e9565b610333565b005b610177610416565b6040516101849190610788565b60405180910390f35b6101a760048036038101906101a291906106bc565b61043c565b6040516101b49190610643565b60405180910390f35b6101c5610454565b6040516101d291906107a3565b60405180910390f35b600281815481106101eb57600080fd5b90600052602060002090600202016000915090508060000154908060010154905082565b6000805b600280549050811015610289578160028281548110610235576102346107be565b5b90600052602060002090600202016001015411156102765760028181548110610261576102606107be565b5b90600052602060002090600202016001015491505b80806102819061081c565b915050610213565b5090565b60035481565b6000806000905060005b6002805490508110156103165781600282815481106102bf576102be6107be565b5b906000526020600020906002020160010154111561030357600281815481106102eb576102ea6107be565b5b90600052602060002090600202016001015491508092505b808061030e9061081c565b91505061029d565b505090565b60006020528060005260406000206000915090505481565b60008061033f33610488565b9150915082821015610386576040517f08c379a000000000000000000000000000000000000000000000000000000000815260040161037d906108e7565b60405180910390fd5b826002858154811061039b5761039a6107be565b5b906000526020600020906002020160010160008282546103bb9190610907565b9250508190555082816103ce9190610907565b6000803373ffffffffffffffffffffffffffffffffffffffff1673ffffffffffffffffffffffffffffffffffffffff1681526020019081526020016000208190555050505050565b600160009054906101000a900473ffffffffffffffffffffffffffffffffffffffff1681565b60008061044883610488565b50905080915050919050565b60006002610460610293565b81548110610471576104706107be565b5b906000526020600020906002020160000154905090565b60008060008060008573ffffffffffffffffffffffffffffffffffffffff1673ffffffffffffffffffffffffffffffffffffffff168152602001908152602001600020549050600081600160009054906101000a900473ffffffffffffffffffffffffffffffffffffffff1673ffffffffffffffffffffffffffffffffffffffff16633a46b1a8876003546040518363ffffffff1660e01b815260040161053092919061094a565b602060405180830381865afa15801561054d573d6000803e3d6000fd5b505050506040513d601f19601f820116820180604052508101906105719190610988565b61057b91906109b5565b90508082935093505050915091565b600080fd5b6000819050919050565b6105a28161058f565b81146105ad57600080fd5b50565b6000813590506105bf81610599565b92915050565b6000602082840312156105db576105da61058a565b5b60006105e9848285016105b0565b91505092915050565b6000819050919050565b610605816105f2565b82525050565b6106148161058f565b82525050565b600060408201905061062f60008301856105fc565b61063c602083018461060b565b9392505050565b6000602082019050610658600083018461060b565b92915050565b600073ffffffffffffffffffffffffffffffffffffffff82169050919050565b60006106898261065e565b9050919050565b6106998161067e565b81146106a457600080fd5b50565b6000813590506106b681610690565b92915050565b6000602082840312156106d2576106d161058a565b5b60006106e0848285016106a7565b91505092915050565b60008060408385031215610700576106ff61058a565b5b600061070e858286016105b0565b925050602061071f858286016105b0565b9150509250929050565b6000819050919050565b600061074e6107496107448461065e565b610729565b61065e565b9050919050565b600061076082610733565b9050919050565b600061077282610755565b9050919050565b61078281610767565b82525050565b600060208201905061079d6000830184610779565b92915050565b60006020820190506107b860008301846105fc565b92915050565b7f4e487b7100000000000000000000000000000000000000000000000000000000600052603260045260246000fd5b7f4e487b7100000000000000000000000000000000000000000000000000000000600052601160045260246000fd5b60006108278261058f565b91507fffffffffffffffffffffffffffffffffffffffffffffffffffffffffffffffff8203610859576108586107ed565b5b600182019050919050565b600082825260208201905092915050565b7f546f6b656e697a656442616c6c6f743a20747279696e6720746f20766f74652060008201527f6d6f7265207468616e20616c6c6f776564000000000000000000000000000000602082015250565b60006108d1603183610864565b91506108dc82610875565b604082019050919050565b60006020820190508181036000830152610900816108c4565b9050919050565b60006109128261058f565b915061091d8361058f565b9250828201905080821115610935576109346107ed565b5b92915050565b6109448161067e565b82525050565b600060408201905061095f600083018561093b565b61096c602083018461060b565b9392505050565b60008151905061098281610599565b92915050565b60006020828403121561099e5761099d61058a565b5b60006109ac84828501610973565b91505092915050565b60006109c08261058f565b91506109cb8361058f565b92508282039050818111156109e3576109e26107ed565b5b9291505056fea26469706673582212209ed5b3fd282d7e64b8edfd970c3f9317f43d797133b167663e47ffd3dc4f82a564736f6c63430008140033",
  "linkReferences": {},
  "deployedLinkReferences": {}
}