{
  "_format": "hh-sol-artifact-1",
  "contractName": "TokenizedBallot",
  "sourceName": "contracts/TokenizedBallot.sol",
  "abi": [
    {
      "inputs": [
        {
          "internalType": "bytes32[]",
          "name": "_proposalNames",
          "type": "bytes32[]"
        },
        {
          "internalType": "address",
          "name": "_targetContract",
          "type": "address"
        },
        {
          "internalType": "uint256",
          "name": "_targetBlockNumber",
          "type": "uint256"
        }
      ],
      "stateMutability": "nonpayable",
      "type": "constructor"
    },
    {
      "inputs": [
        {
          "internalType": "uint256",
          "name": "",
          "type": "uint256"
        }
      ],
      "name": "proposals",
      "outputs": [
        {
          "internalType": "bytes32",
          "name": "name",
          "type": "bytes32"
        },
        {
          "internalType": "uint256",
          "name": "voteCount",
          "type": "uint256"
        }
      ],
      "stateMutability": "view",
      "type": "function"
    },
    {
      "inputs": [],
      "name": "targetBlockNumber",
      "outputs": [
        {
          "internalType": "uint256",
          "name": "",
          "type": "uint256"
        }
      ],
      "stateMutability": "view",
      "type": "function"
    },
    {
      "inputs": [],
      "name": "targetContract",
      "outputs": [
        {
          "internalType": "contract IMyToken",
          "name": "",
          "type": "address"
        }
      ],
      "stateMutability": "view",
      "type": "function"
    },
    {
      "inputs": [
        {
          "internalType": "uint256",
          "name": "proposal",
          "type": "uint256"
        },
        {
          "internalType": "uint256",
          "name": "amount",
          "type": "uint256"
        }
      ],
      "name": "vote",
      "outputs": [],
      "stateMutability": "nonpayable",
      "type": "function"
    },
    {
      "inputs": [
        {
          "internalType": "address",
          "name": "account",
          "type": "address"
        }
      ],
      "name": "votingPower",
      "outputs": [
        {
          "internalType": "uint256",
          "name": "",
          "type": "uint256"
        }
      ],
      "stateMutability": "view",
      "type": "function"
    },
    {
      "inputs": [],
      "name": "winnerName",
      "outputs": [
        {
          "internalType": "bytes32",
          "name": "winnerName_",
          "type": "bytes32"
        }
      ],
      "stateMutability": "view",
      "type": "function"
    },
    {
      "inputs": [],
      "name": "winningProposal",
      "outputs": [
        {
          "internalType": "uint256",
          "name": "winningProposal_",
          "type": "uint256"
        }
      ],
      "stateMutability": "view",
      "type": "function"
    }
  ],
  "bytecode": "0x60806040523480156200001157600080fd5b5060405162000dcc38038062000dcc8339818101604052810190620000379190620003c8565b816000806101000a81548173ffffffffffffffffffffffffffffffffffffffff021916908373ffffffffffffffffffffffffffffffffffffffff160217905550438110620000bc576040517f08c379a0000000000000000000000000000000000000000000000000000000008152600401620000b390620004ca565b60405180910390fd5b8060028190555060005b83518110156200015a5760016040518060400160405280868481518110620000f357620000f2620004ec565b5b602002602001015181526020016000815250908060018154018082558091505060019003906000526020600020906002020160009091909190915060008201518160000155602082015181600101555050808062000151906200054a565b915050620000c6565b5050505062000597565b6000604051905090565b600080fd5b600080fd5b600080fd5b6000601f19601f8301169050919050565b7f4e487b7100000000000000000000000000000000000000000000000000000000600052604160045260246000fd5b620001c8826200017d565b810181811067ffffffffffffffff82111715620001ea57620001e96200018e565b5b80604052505050565b6000620001ff62000164565b90506200020d8282620001bd565b919050565b600067ffffffffffffffff82111562000230576200022f6200018e565b5b602082029050602081019050919050565b600080fd5b6000819050919050565b6200025b8162000246565b81146200026757600080fd5b50565b6000815190506200027b8162000250565b92915050565b600062000298620002928462000212565b620001f3565b90508083825260208201905060208402830185811115620002be57620002bd62000241565b5b835b81811015620002eb5780620002d688826200026a565b845260208401935050602081019050620002c0565b5050509392505050565b600082601f8301126200030d576200030c62000178565b5b81516200031f84826020860162000281565b91505092915050565b600073ffffffffffffffffffffffffffffffffffffffff82169050919050565b6000620003558262000328565b9050919050565b620003678162000348565b81146200037357600080fd5b50565b60008151905062000387816200035c565b92915050565b6000819050919050565b620003a2816200038d565b8114620003ae57600080fd5b50565b600081519050620003c28162000397565b92915050565b600080600060608486031215620003e457620003e36200016e565b5b600084015167ffffffffffffffff81111562000405576200040462000173565b5b6200041386828701620002f5565b9350506020620004268682870162000376565b92505060406200043986828701620003b1565b9150509250925092565b600082825260208201905092915050565b7f546f6b656e697a656442616c6c6f743a20746172676574426c6f636b4e756d6260008201527f6572206d75737420626520696e20746865207061737400000000000000000000602082015250565b6000620004b260368362000443565b9150620004bf8262000454565b604082019050919050565b60006020820190508181036000830152620004e581620004a3565b9050919050565b7f4e487b7100000000000000000000000000000000000000000000000000000000600052603260045260246000fd5b7f4e487b7100000000000000000000000000000000000000000000000000000000600052601160045260246000fd5b600062000557826200038d565b91507fffffffffffffffffffffffffffffffffffffffffffffffffffffffffffffffff82036200058c576200058b6200051b565b5b600182019050919050565b61082580620005a76000396000f3fe608060405234801561001057600080fd5b506004361061007d5760003560e01c8063b384abef1161005b578063b384abef146100ef578063bd90df701461010b578063c07473f614610129578063e2ba53f0146101595761007d565b8063013cf08b146100825780632a8cd29e146100b3578063609ff1bd146100d1575b600080fd5b61009c600480360381019061009791906103ff565b610177565b6040516100aa929190610454565b60405180910390f35b6100bb6101ab565b6040516100c8919061047d565b60405180910390f35b6100d96101b1565b6040516100e6919061047d565b60405180910390f35b61010960048036038101906101049190610498565b610239565b005b6101136102c4565b6040516101209190610557565b60405180910390f35b610143600480360381019061013e91906105b0565b6102e8565b604051610150919061047d565b60405180910390f35b610161610390565b60405161016e91906105dd565b60405180910390f35b6001818154811061018757600080fd5b90600052602060002090600202016000915090508060000154908060010154905082565b60025481565b6000806000905060005b6001805490508110156102345781600182815481106101dd576101dc6105f8565b5b90600052602060002090600202016001015411156102215760018181548110610209576102086105f8565b5b90600052602060002090600202016001015491508092505b808061022c90610656565b9150506101bb565b505090565b80610243336102e8565b1015610284576040517f08c379a000000000000000000000000000000000000000000000000000000000815260040161027b90610721565b60405180910390fd5b8060018381548110610299576102986105f8565b5b906000526020600020906002020160010160008282546102b99190610741565b925050819055505050565b60008054906101000a900473ffffffffffffffffffffffffffffffffffffffff1681565b60008060009054906101000a900473ffffffffffffffffffffffffffffffffffffffff1673ffffffffffffffffffffffffffffffffffffffff16633a46b1a8836002546040518363ffffffff1660e01b8152600401610348929190610784565b602060405180830381865afa158015610365573d6000803e3d6000fd5b505050506040513d601f19601f8201168201806040525081019061038991906107c2565b9050919050565b6000600161039c6101b1565b815481106103ad576103ac6105f8565b5b906000526020600020906002020160000154905090565b600080fd5b6000819050919050565b6103dc816103c9565b81146103e757600080fd5b50565b6000813590506103f9816103d3565b92915050565b600060208284031215610415576104146103c4565b5b6000610423848285016103ea565b91505092915050565b6000819050919050565b61043f8161042c565b82525050565b61044e816103c9565b82525050565b60006040820190506104696000830185610436565b6104766020830184610445565b9392505050565b60006020820190506104926000830184610445565b92915050565b600080604083850312156104af576104ae6103c4565b5b60006104bd858286016103ea565b92505060206104ce858286016103ea565b9150509250929050565b600073ffffffffffffffffffffffffffffffffffffffff82169050919050565b6000819050919050565b600061051d610518610513846104d8565b6104f8565b6104d8565b9050919050565b600061052f82610502565b9050919050565b600061054182610524565b9050919050565b61055181610536565b82525050565b600060208201905061056c6000830184610548565b92915050565b600061057d826104d8565b9050919050565b61058d81610572565b811461059857600080fd5b50565b6000813590506105aa81610584565b92915050565b6000602082840312156105c6576105c56103c4565b5b60006105d48482850161059b565b91505092915050565b60006020820190506105f26000830184610436565b92915050565b7f4e487b7100000000000000000000000000000000000000000000000000000000600052603260045260246000fd5b7f4e487b7100000000000000000000000000000000000000000000000000000000600052601160045260246000fd5b6000610661826103c9565b91507fffffffffffffffffffffffffffffffffffffffffffffffffffffffffffffffff820361069357610692610627565b5b600182019050919050565b600082825260208201905092915050565b7f546f6b656e697a656442616c6c6f743a20747279696e6720746f20766f74652060008201527f6d6f7265207468616e20616c6c6f776564000000000000000000000000000000602082015250565b600061070b60318361069e565b9150610716826106af565b604082019050919050565b6000602082019050818103600083015261073a816106fe565b9050919050565b600061074c826103c9565b9150610757836103c9565b925082820190508082111561076f5761076e610627565b5b92915050565b61077e81610572565b82525050565b60006040820190506107996000830185610775565b6107a66020830184610445565b9392505050565b6000815190506107bc816103d3565b92915050565b6000602082840312156107d8576107d76103c4565b5b60006107e6848285016107ad565b9150509291505056fea26469706673582212200a31d141b23ec861f4a8964b78c1c7dbe7993e2f0d2881ebb56676bf6d3be47864736f6c63430008140033",
  "linkReferences": {},
  "deployedLinkReferences": {}
}